:400000000080002011000000150700001507000008B5044B1A6803F53F5302331A6000F081FB00BFFA46004010B5054C237833B9044B13B10448AFF300800123237010BDC3
:400040004081FF1F0000000074190000084B10B51BB108490848AFF300800848036803B910BD074B002BFBD0BDE81040184700BF000000004481FF1F74190000C880FF1FF8
:400080000000000008B50021682000F067FD0028F9D108BD10B5002411E0FFF7F3FF204600F0EEFD0121682000F098FD002000F013FE044B185500F0C7FD0134E4B2072C0E
:4000C000EBD910BD7C81FF1F38B50546013080B201F014FA000284B2284601F00FFA204480B238BD38B505460C46C0B201F09EF9611C89B2280A01F099F938BD10B5124C86
:40010000A078C0F3001000F057FFA07800F00F0000F052FF3A2000F0D3FE6078000900F04BFF607800F00F0000F046FF3A2000F0C7FE2078000900F03FFF207800F00F008F
:4001400000F03AFF10BD00BF7C81FF1F10B53C4C63882380A388638001F000F9002001F005F901F015F901F01FF980B2A08063882288934294BF00220122984228BF00228E
:4001800040F6C3118B4294BF00230123002A55D0002B53D0E3889BB242F22732934204D8E3889BB209339BB2E380254A13899BB201339BB2138113899BB2B3F57A7F02D1CD
:4001C00000221F4B1A811E4C2089002180B2FFF789FF218989B201EBC101023189B26088FFF780FFFFF756FF00240CE0144B198989B201EBC1012144043189B2114B185DAB
:4002000001F014F90134062CF0DD0D4B9B7A13F0FF0F13D10021084600F0B0FE0A4800F041FE0021084600F0A9FE054B588800F0C3FE064800F036FEFFF760FF10BD00BF62
:400240005C81FF1F7C81FF1F781900008819000010B5124C2079C0F3001000F0ADFE207900F00F0000F0A8FE2F2000F029FE6079000900F0A1FE607900F00F0000F09CFEB5
:400280002F2000F01DFEA079000900F095FEA07900F00F0000F090FE10BD00BF7C81FF1F10B5012000F010FE0021084600F066FE144BD86800EBC000023080B2FFF704FFB4
:4002C00000F07AFE104800F0EDFD00240BE00D4BD86800EBC0002044043080B201F00EF90A4B18550134062CF1DD0821002000F045FEFFF7ADFF0421012000F03FFEFFF7D2
:40030000FDFE10BD5C81FF1F8C1900007C81FF1F10B501F007F9052824D0062802D0032846D132E0012000F0CFFD234B9B7A13F0FF0F13D1204C0123A3720020FFF7C4FE3D
:40034000E060E3683BB90021084600F017FE1B4800F0A8FD2CE0FFF7A3FF29E00022164B9A7225E0144B9B7ADBB2012B20D1124BDA68013ADA60DB68002B03DC0E4A1389DE
:400380009BB2D360FFF78CFF12E00B4B9B7ADBB2012B0DD1084BDA680132DA601A8992B2DB689A4202DA0122034BDA60FFF778FF01F0BEF810BD00BF5C81FF1F9019000075
:4003C00008B562B600F0CCFD00F04CFA00F0CCFE174800F0F1FE174801F0CAF800F0B0FF154B11229A7051225A7000241C7012221A7110225A7118229A710522DA7001F0A3
:4004000011F82046FFF760FE0C4B18810B4B9B7A13F0FF0FFAD1FFF73DFE0421012000F0ADFDFFF76BFE4FF4FA7000F0F9FDEDE74D010000110300007C81FF1F5C81FF1F73
:40044000FEE700BFF0B40022174611E050F82760F3B226F0FF0608E001EB420511F812406D78A5550132013BDBB2002BF4D10137192FEBD9F0BC704708B50A46002101F02E
:4004800070FA08BDF8B5174B1B78DBB2164E3478E4B2164F3D78EDB203F00701144A11701B090132137044F00303337045F003033B700123A2F24272137040220D490A70E7
:4004C00002310A700C4A13702021033211702D3213700A2000F0BAFD3D7034704422074B1A70F8BDCF010049F8460040F94600406E58004009590040285B004076580040F5
:4005000008B501F023FA08BD38B54FF49C72304B1A8018232F4A137045F6BF51023211800232137004222C492C48FFF7E9FF02222B4B1A7008224FF040231A70032103F557
:4005400000731970274B1B78DBB227490B70274B1A8041F25122023B1A80002419250CE0234B1B7803F0010343EA440404F003044FF4F07001F00CF8013D0DB1032CEFD140
:4005800015B90320FFF75CFF1A4B4FF480721A8007221A70002218490A704820023108701A700222033B1A7004220A331A70134A137843F003031370013A137843F00103FE
:4005C0001370013A137843F08003137038BD00BF804000408240004088030048004100400043004008010049A146004022420040254200400440004006400040A2430040F9
:4006000038B572B6304A137843F00403137000240CE02E4D630019194A0011462A44084691882858FFF728FF0134E4B2082CF0D927494FF09040FFF705FF264A137843F041
:40064000020313701032137843F002031370224C237843F040032370A2F58632513A137843F0100313700A221C491D48FFF748FF08221C491C48FFF743FF08221B491C48DA
:40068000FFF73EFF08221B491B48FFF739FF0A221A491B48FFF734FF1A4A137843F008031370194D61232B70FFF72EFF81232B700122164B1A70FFF7E5FE0E22214614485C
:4006C000FFF71EFF38BD00BFE8460040A01900006800004803500140A0430040580300480051004064030048C25100406C0300481251004074030048225100407C030048DC
:4007000030510040224300400048004004000840B043004008B501F0EDF803680C2B00D1FEE7FEE708B5104E104D16E029686B68AC68002204E051F8040B43F8040B0432B8
:40074000A242F8D1E868002203E0002143F8041B04328242F9D11035013E002EE6D101F0CFF8FFF72DFEFEE701000000FC19000008B5104A104B1A60104A136843F4007390
:40078000136000230AE0032B03D80D4A52F8231000E00C490C4A42F8231001332F2BF2D90A4B1A780A4B1A70074A0A4B1A60FFF727FF08BD0004FA050CED00E014ED00E007
:4007C00000000000150700000080FF1FBC760040C080FF1F08ED00E038B50222114B1A7081220E3B1A70082202331A700F2511331D70002401331C704FF400420A4B1A6007
:400800000721284600F040FC0849284600F028FC1022074B1A70074B1C70074B1C70074B1C7038BDD649004080E100E08D0800008481FF1F8A81FF1F9281FF1F8881FF1FAD
:4008400008B500F0ADFE064A137843F0040313701032137843F00403137000F0A5FE08BDA543004008B5074B1B7823B9FFF7B4FF0122044B1A70FFF7E3FF4FF40042024BB1
:400880001A6008BD6C81FF1F00E100E038B5A54B1C78A54B1B7813F0400F00F03A81E4B214F0010F00F01D819F4B1B78453B052B00F21481DFE813F00600820012011201D8
:4008C0000600DF0004F0DF0504F00A04082C42D1954B1B78DBB2452B35D1944B1B7813F0FF0F10D0924B1B681B78DBB2914A137004228C4B1A7001228F4B1A7046228A4BF0
:400900001A702C46EDE08D4B1B7813F0020F0DD08B4A137843F00A0313706022824B1A704FF40042874B1A602C46DAE0864A137843F0100313701022844B1A700422023B87
:400940001A702C46CDE00022764B1A704A22764B1A702C46C5E00A2C2BD1794A137843F0A0031370754B1B7813F0020F14D06E4B1B7813F0080F01D0092300E00A23704A45
:4009800011780B4313706022674B1A704FF400426C4B1A602C46A4E06B4A137843F0100313701022694B1A700422023B1A702C4697E0002000F032FB2C4692E014F0020FEE
:4009C00036D15D4B1A78D2B2584B1B78DBB29A4210D2594A1378DBB255490968CB5CDBB254490B7004214F4B197013780133DBB2137076E0514B1B7813F0020F0CD0504AF5
:400A0000137843F00A0313706022474B1A704FF400424C4B1A6064E04B4A137843F0100313701022494B1A700422023B1A7058E0424B1B7813F0020F0CD0414A137843F039
:400A40009A0313706022384B1A704FF400423D4B1A6046E03C4A137843F01003137010223A4B1A700422023B1A70354A137843F09003137035E0364A1378DBB23549086824
:400A80002C490978C9B2C15413780133DBB213701278D2B2304B1B78DBB29A4203D21022204B1A701DE0254B1B7813F0020F0CD0234A137843F00903137060221A4B1A7045
:400AC0004FF400421F4B1A600BE01F4A137843F0100313700022134B1A7002E0002000F09DFA14F0200F1CD00F4B1B7813F0080F01D0012300E00223114A11780B4313707D
:400B0000114A137803F0EF0313701022064B1A7038BD054B1B7813F0100F02D11022024B1A7038BDD74900408481FF1F8981FF1F9481FF1FD84900408881FF1F9081FF1FFA
:400B40008A81FF1F80E100E0D6490040D94900409281FF1F8C81FF1F9181FF1F1A4B1B78DBB2102B29D1194B1B7813F0080F26D14FF40042164B1A604000C0B229B140F0E0
:400B800001004922104B1A7002E045220E4B1A70104B1870012201331A700F4B1B7813F0010FFAD00C4B1B7803F00A030A2B08D11022054B1A700320704702207047012052
:400BC00070470020704700BF8481FF1FD949004080E100E0D8490040D7490040164B1B7813F0040F23D04000C0B229B140F001004922124B1A7002E04522104B1A70104B8C
:400C00001870122201331A700422023B1A700D4B1B7813F0010FFAD00A4B1B7803F00A030A2B06D11022054B1A7003207047022070470020704700BFD94900408481FF1FB7
:400C4000D8490040D74900400A4B1B7813F0040F0ED01023074A13700421023A1170064A1370064B1B7813F0210FFAD00020704702207047D94900408481FF1FD7490040A5
:400C8000114B1B7813F0040F1BD0104B18700422013B1A7046220E4B1A700E4B1B7813F0010FFAD00B4B1B7813F0020F04D16022074B1A70002070476022054B1A700320DB
:400CC00070470220704700BFD9490040D84900408481FF1FD7490040114B1B7813F0040F1BD0104B1B78DBB2492B05D100220E4B1A704A220B4B1A700B4B1B7813F0010F5D
:400D0000FAD00A4B1B78DBB218B11021064A117004E06021034A117000E0002318467047D94900408481FF1FD7490040D849004010B50B4C237803F09F032370237803F0AB
:400D4000F00323702378184340F010002070012000F07CF9237803F0EF03237010BD00BFC051004038B505460E4C237843F020032370237803F0BF032370002000F066F949
:400D8000237803F0F003237023781D4345F010052570012000F05AF9237803F0EF03237038BD00BFC051004070B5354B1A7802F08002D2B21A7033490A7802F0F00242F0FC
:400DC0000F020A7001310A7802F0F0020A7001310A7802F0F0020A701A7802F0DF021A701A7842F040021A704FF4CA76002000F02DF9234D2B7843F010032B70012000F007
:400E000025F9214B1C78E4B22B7803F0EF032B70002000F01BF904F00804E4B22B7843F010032B70012000F011F92B7803F0EF032B7014B90A2000F009F9013E0CB1002E4C
:400E4000D4D10F4A137803F0BF031370137803F08003DBB213700232137803F0F00313700132137803F0F00343F00F0313700132137803F0F00343F00F03137070BD00BFB4
:400E8000C0510040C2510040C151004010B50446FFF78AFF2009FFF765FF04F00F00FFF761FF10BD38B505460078012404E0FFF7EDFF285D0134E4B20028F8D138BD00BF75
:400EC00008B5FFF7E3FF08BD10B50446FFF76CFF2009FFF72DFF04F00F00FFF729FF10BD08B5282000F09CF80320FFF721FF052000F096F80320FFF71BFF0F2000F090F8B0
:400F00000320FFF715FF012000F08AF80220FFF70FFF052000F084F80620FFF7D5FF0E20FFF7D2FF2C20FFF7CFFF0820FFF7CCFF0120FFF7C9FF0C20FFF7C6FF0320FFF77D
:400F4000C3FF052000F06CF808BD00BF08B50C20FFF7BAFF0122014B1A7008BD6D81FF1F08B5054B5B7823B9FFF7BAFF0122024B5A70FFF7EBFF08BD6D81FF1F08B5032812
:400F800019D8DFE800F002070D1381F08000FFF79BFF08BDA1F14000C0B2FFF795FF08BDA1F16C00C0B2FFF78FFF08BDA1F12C00C0B2FFF789FF08BD10B584B000238DF8BA
:400FC0000E30092211E0144BA3FB0013DB081C4603EB83035900431ADBB2303304A9114401F80C3C2046013AD2B20928EBD80A4BA3FB0013DB0803EB83035900431ADBB22C
:40100000303304A9114401F80C3C01AB9818FFF749FF04B010BD00BFCDCCCCCC01BE704710B5044605E0084B186800F0B1FAA4F50044B4F5004FF6D8034B586800FB04F087
:4010400000F0A6FA10BD00BFCC80FF1F08B5034B1B7A00FB03F000F09BFA08BDCC80FF1F70B504460E46074B1D681F2802D90020FFF7D4FF04F01F04103455F8240045F8FA
:40108000246070BD08ED00E038B504460D46072902D90020FFF7C2FF1F2C02D90020FFF7BDFF04F01F0000F1604000F564406D01EDB2057038BD00BF084A137843F00103BF
:4010C00013701032137843F00103137002F64D32137843F001031370704700BFA3430040014B1870704700BF034F0040014B1880704700BF044F0040014B1880704700BF6B
:40110000064F004008B5154A137803F0010313700232137803F0FC031370114B1A7802F0CF021A701A7842F030021A701A7802F0F0021A701A7842F00F021A70094A1378CD
:4011400043F001031370FF20FFF7D0FFFF20FFF7D3FF0020FFF7C4FF08BD00BF004F00400B4F0040014F004008B5054B1B7823B9FFF7C8FF0122024B1A70FFF79DFF08BD4A
:401180006F81FF1F014B1B681864704708ED00E04001C0B2014B1870704700BF00E400E00122014B1A60704700E100E00122014B1A60704780E100E010B50446FFF7F6FF4D
:4011C0002046FFF7DFFF0720FFF7E2FFFFF7E8FF10BD00BF08B50A280FD00C2802D0082806D102E04FF4805209E04FF4807206E00020FFF713FF002201E04FF48062002107
:40120000094B198042F2107303FB02F303F6C413064A82FB0302DB17C3EBE223044A1360044B198008BD00BF9E81FF1FAD8BDB689881FF1F9C81FF1F38B500F0B1F90446A8
:401240001E4A137843F0020313701032137843F0020313701A3A137843F0010313701032137843F00103137002F5AA521A32137843F0030313700422114B1A70013B1A78B8
:4012800002F0BF021A701A7842F003021A700822053B1A700225A3F59753123B1D70094A137843F0080313700A20FFF7CFFE064B1D60204600F078F938BD00BFAB43004024
:4012C0000E5900402F5B004080E200E010B504460A280DD00C2802D0082804D101E0C42207E0442205E00020FFF798FEC42200E08422034B1A702046FFF76CFF10BD00BFD6
:401300000A59004008B5102000F07CF807210120FFF7BAFE07490120FFF7A2FE064A137843F0060313700820FFF7D0FF0022034B1A8008BD0114000009590040A081FF1F6F
:4013400008B5054B1B7823B9FFF7DCFF0122024B1A70FFF771FF08BD7081FF1F024A137843F00103137070470859004010B5074B1B7813F0010401D10028F8D024B1012099
:40138000FFF764FE014B1B78204610BD09590040034B188880B2034B1B88C01A00B27047A25B00409C81FF1F10B4124B1B881BB233B1104B1B881BB203EB83035C0001E064
:4013C0000D4B1C680D4B1988411A09B242F2107303FB01F2002903DD04EBD470401003E004EBD47040104042831893FBF4F000B210BC70479E81FF1F9881FF1FA081FF1FF1
:40140000704700BF034B1A7800F0F80010431870704700BF0241004008B500F01FF900F027F908BD08B5FFF7F7FF08BD30B583B00C468DF8070000F05BF9B4F5006F52D21C
:401440002509A4EB0514A4B200F0FEF900284CD101230DF107022146402000F075F9044607282FD1234B1B7813F0020FFAD0214B1B7813F0020F06D01E4B1B789B0805D00F
:401480004FF0FF3403E04FF0FF3400E00024E4B9194A537812782946402000F091F9072816D1144B1B7813F0020FFAD0114B1B7813F0020F0FD00F4B1B789B0810D04FF04C
:4014C000FF340DE0012809D10AE04FF0FF3407E04FF0FF3404E04FF0FF3401E04FF0FF3400F0D8F902E0012400E00424204603B030BD00BF22470040A481FF1F38B50446B3
:4015000000F04EF8054600F0DDF804F1804000F500400478E4B200F0E3F8284600F044F8204638BD014B18784009704731510040014B18784009704783450040014B1B6858
:40154000D865704708ED00E04001C0B2014B1870704700BF07E400E08022014B1A60704700E100E08022014B1A60704780E100E010B50446FFF7F6FF2046FFF7DFFF07203F
:40158000FFF7E2FFFFF7E8FF10BD00BF000000000230800803D000BF01380046FCD17047EFF3108072B6704780F31088704700BF10B500F09DF800F047F910BB012000F074
:4015C00025F9072818D102210F4800F0A3F802280AD102E00120FFF739FD0C4B1B7813F0020FF7D0002409E0084B1B7813F0020FE9D04FF0FF3401E04FF0FF3400F04AF9FF
:4016000000E00424204610BDA481FF1F2247004010B500F06DF800F017F9D0B900F056F90446072812D102E00120FFF70FFD0A4B1B7813F0020FF7D0074B1B7813F0020F84
:4016400004D0054B1B789B0800D1002400F022F900E00424204610BD2247004008B5FFF7D7FF034610B9FFF7A3FF0346184608BD08B5FFF795FF0F4A137843F008031370A1
:401680001032137843F008031370C8220A4B1A700A4A137843F0100313701032137843F010031370064B1B7813F0200FFAD0FFF77BFF08BDA043004001470040AC430040A6
:4016C00000470040054A137843F001031370034B1B7813F0020FFAD0704700BF02470040024A137803F0FE03137070470247004008B5FFF755FF064A137843F008031370E0
:401700001032137843F008031370FFF74DFF08BDA043004070B506460D4600240CE00120FFF794FC064B1B7813F0010FF7D0054B1B7833550134E4B2AC42F3D3204670BD3B
:40174000224700402047004030B43E2801D81F2B03D93F2827D90F2B27D8174C247814F0020F24D0154CB6252570D4252570012525700234247814F0020F1AD10F4C207051
:40178000C1F300202070C9B22170591EC9B22170002104E0545C094804700131C9B29942F8D3072006E0012004E0012002E0042000E0092030BC7047224700402047004034
:4017C00030B4104C247814F0020F15D00E4CB6252570D8252570052525700234247814F0020F0BD1084C2070080A2070C9B2217022702370072002E0042000E0092030BC5C
:40180000704700BF22470040204700400C4B1B7813F0020F0FD00B4BB6221A70E1221A700E221A7002331B7813F0020F05D1054B187007207047042070470920704700BF24
:40184000224700402047004010B5FFF7A9FE0F4B1B78A3B901220D4B1A700D4B1B6813F0010F0ED00A4A136823F00103136000BF00BF00BF0122054B5A60002402E00424AB
:4018800000E00024FFF790FE204610BD7481FF1F0400084008B5FFF783FE0A4B00221A705B68012B0AD1084A136843F00103136000BF00BF00BF0022024B5A60FFF774FECA
:4018C00008BD00BF7481FF1F04000840074B1B7813F0020F08D0064BB6221A70E0221A700D221A7007207047042070472247004020470040014B1868704700BF3C81FF1F16
:401900000E4B70B51E460E4C0025E41AA410A54204D056F8253098470135F8E700F05CF8084B094C1E46E41AA4100025A54204D056F8253098470135F8E770BDE41900009F
:40194000E4190000E4190000EC19000010B5431E0A44914204D011F8014B03F8014FF8E710BD03460244934202D003F8011BFAE7704700000000000020202020202020201C
:4019800020202020202020006D562000206D56004E6F20686179206461746F7300000000C84900401900004F00400C00405100403000F0510040100000000140001000142B
:4019C0000140000800400140000A004C014000020050014020004300F8B500BFF8BC08BC9E4670474D00000071070000F8B500BFF8BC08BC9E46704729000000101A00007A
:401A0000C880FF1F780000006800000000000000000000000000E02EC05D00001800000000366E010000000000000000000000000000000000000000000000000000000078
:401A400000000000D6190000000000000000000000000000000000000000000000000000000000000000000000000000000000000000000000000000000000000000000077
:401A800000000000DC80FF1F0000000000000000000000000000000000000000000000000000000000000000000000000000000000000000000000000000000000000000AC
:401AC00000000000000000000000000000000000000000000000000000000000000000000000000000000000000000000000000000000000000000000000000000000000E6
:401B000000000000000000000000000000000000000000000000000000000000000000000000000000000000000000000000000000000000000000000000000000000000A5
:401B40000000000000000000000000000000000000000000000000000000000000000000000000000000000000000000000000000000000000000000000000000000000065
:401B80000000000000000000000000000000000000000000000000000000000000000000000000000000000000000000000000000000000000000000000000000000000025
:020000040003F7
:0200000480007A
:4000000003450040024F004004520040036400405F0001403401014008030140520401403805014001070140010D014001150140011B014003400140094101400A4201400B
:400040000343014009450140054601400547014001480140024901400E4C0140014D014003500140025101401D011E011F0101100A4B01020401100411088038810F8571B3
:400080000203040C05800671071308DC092C0A220B430C141410157116AC17061B0C1F0820102240240926D029712A202B0E301F3130330F34E035C039223A203B083F0186
:4000C0004004454049FF4A074BFF4C404D204EF04F0550085418580459045A045B045F01604061A8624063208040861588138A04900392149413960CA020A501A608A80A95
:40010000A901AA14AD01B010B20FB420B501B640BA08BE51C032C106C5E0C60CC7B0C826C9FFCAFFCBFFCEF0CF44D00CD401D804D904DA04DB04DF01E6C0EA40EB0201024F
:4001400002190408051209080D090F80108012241501172819121A081D0C1E481F80204022282338270429102A102F2A30803104322038083B1040404508460448804D010A
:400180004E0450045204560157405B015D215E486005C07FC234C47ECA74CC0ECE06D061D220D6F1D80C838094059B049F01A380A72AAD21EA800006020104060A010E0804
:4001C000120814071A101C0722102401260628022C0430073410360838083E5458045F018104820483018418850688088CBC8E41943C96C2970498E799069A189C849F06A4
:40020000A010A6C3A8FFAB06B020B101B21FB498B502B658B704B920BAA8BB08BE01C063C102C204C405C60EC7C0C824C9FFCAFFCBFFCC62CDA0CEF0CF41D00CD602D71056
:40024000D804D904DA04DB04DF01E640E702E910EA30EB10ED10EE10EF12004A030405400624074009190B010C100E240F0210101245172618451B041C021D481E641F0423
:40028000251027612F04354037243E043F0240404280468047244E044F40550156405A0C5E406F2A740476257702934094059B049F01A301A72AAF41C0FFC2EFC47FCA20E5
:4002C000CC70CEC0D0E0D230D610AB25EA80EA01EA0130403610CC3000080380530183019C40B210C010D480E62010403E1058089C40AC04AF80C410CE20D640EC5096103C
:40030000A808EE200110041054805820A720B320C003D403EA01901091109C20A480A720901091109C20A480A7209610AA10EA801080132014201F2079107C109010911049
:400340009C20A480A720C40EC601DE03AB20000108010A01000F03C0020001020200020004000000007F7F0000000000000B0B000000000000020E000C000100E00000E0AC
:400380000000000000000000020018010000000000000000000000000000000000000000000000000000000000000000000000000000000000000000000000000000000022
:4003C00000000000000000000000000000000000000000000000000000000000000000000000000000000000000000000000000000000000000000000000000000000000FD
:4004000000000000000000000000000000000000000000000000000000000000000000000000000000000000000000000000000000000000000000000000000000000000BC
:40044000000000000000000000000000000000000000000000000000000000000000000000000000000000000000000000000000000000000000000000000000000000007C
:40048000000000000000000000000000000000000000000000000000000000000000000000000000000000000000000000000000000000000000000000000000000000003C
:0200000490006A
:0400000000004005B7
:0200000490105A
:04000000BC90ACAF55
:0200000490303A
:020000008CD39F
:0200000490402A
:4000000000000000000000000000000000000000000000000000000000000000000000000000000000000000000000000000000000000000000000000000000000000000C0
:400040000000000000000000000000000000000000000000000000000000000000000000000000000000000000000000000000000000000000000000000000000000000080
:400080000000000000000000000000000000000000000000000000000000000000000000000000000000000000000000000000000000000000000000000000000000000040
:4000C0000000000000000000000000000000000000000000000000000000000000000000000000000000000000000000000000000000000000000000000000000000000000
:0200000490501A
:0C00000000012E16106900012E209D3C0E
:00000001FF